{
  "contractName": "Counter",
  "abi": [
    {
      "inputs": [
        {
          "internalType": "uint256",
          "name": "initial_value",
          "type": "uint256"
        },
        {
          "internalType": "string",
          "name": "_description",
          "type": "string"
        }
      ],
      "stateMutability": "nonpayable",
      "type": "constructor"
    },
    {
      "inputs": [],
      "name": "increment_counter_value",
      "outputs": [],
      "stateMutability": "nonpayable",
      "type": "function"
    },
    {
      "inputs": [],
      "name": "decrement_counter_value",
      "outputs": [],
      "stateMutability": "nonpayable",
      "type": "function"
    },
    {
      "inputs": [],
      "name": "get_number_value",
      "outputs": [
        {
          "internalType": "uint256",
          "name": "",
          "type": "uint256"
        }
      ],
      "stateMutability": "view",
      "type": "function"
    },
    {
      "inputs": [],
      "name": "get_description_value",
      "outputs": [
        {
          "internalType": "string",
          "name": "",
          "type": "string"
        }
      ],
      "stateMutability": "view",
      "type": "function"
    }
  ],
  "bytecode": "0x608060405234801562000010575f80fd5b506040516200096c3803806200096c833981810160405281019062000036919062000274565b335f806101000a81548173ffffffffffffffffffffffffffffffffffffffff021916908373ffffffffffffffffffffffffffffffffffffffff16021790555060405180604001604052808381526020018281525060015f820151815f01556020820151816001019081620000ab919062000506565b509050505050620005ea565b5f604051905090565b5f80fd5b5f80fd5b5f819050919050565b620000dc81620000c8565b8114620000e7575f80fd5b50565b5f81519050620000fa81620000d1565b92915050565b5f80fd5b5f80fd5b5f601f19601f8301169050919050565b7f4e487b71000000000000000000000000000000000000000000000000000000005f52604160045260245ffd5b620001508262000108565b810181811067ffffffffffffffff8211171562000172576200017162000118565b5b80604052505050565b5f62000186620000b7565b905062000194828262000145565b919050565b5f67ffffffffffffffff821115620001b657620001b562000118565b5b620001c18262000108565b9050602081019050919050565b5f5b83811015620001ed578082015181840152602081019050620001d0565b5f8484015250505050565b5f6200020e620002088462000199565b6200017b565b9050828152602081018484840111156200022d576200022c62000104565b5b6200023a848285620001ce565b509392505050565b5f82601f83011262000259576200025862000100565b5b81516200026b848260208601620001f8565b91505092915050565b5f80604083850312156200028d576200028c620000c0565b5b5f6200029c85828601620000ea565b925050602083015167ffffffffffffffff811115620002c057620002bf620000c4565b5b620002ce8582860162000242565b9150509250929050565b5f81519050919050565b7f4e487b71000000000000000000000000000000000000000000000000000000005f52602260045260245ffd5b5f60028204905060018216806200032757607f821691505b6020821081036200033d576200033c620002e2565b5b50919050565b5f819050815f5260205f209050919050565b5f6020601f8301049050919050565b5f82821b905092915050565b5f60088302620003a17fffffffffffffffffffffffffffffffffffffffffffffffffffffffffffffffff8262000364565b620003ad868362000364565b95508019841693508086168417925050509392505050565b5f819050919050565b5f620003ee620003e8620003e284620000c8565b620003c5565b620000c8565b9050919050565b5f819050919050565b6200040983620003ce565b620004216200041882620003f5565b84845462000370565b825550505050565b5f90565b6200043762000429565b62000444818484620003fe565b505050565b5b818110156200046b576200045f5f826200042d565b6001810190506200044a565b5050565b601f821115620004ba57620004848162000343565b6200048f8462000355565b810160208510156200049f578190505b620004b7620004ae8562000355565b83018262000449565b50505b505050565b5f82821c905092915050565b5f620004dc5f1984600802620004bf565b1980831691505092915050565b5f620004f68383620004cb565b9150826002028217905092915050565b6200051182620002d8565b67ffffffffffffffff8111156200052d576200052c62000118565b5b6200053982546200030f565b620005468282856200046f565b5f60209050601f8311600181146200057c575f841562000567578287015190505b620005738582620004e9565b865550620005e2565b601f1984166200058c8662000343565b5f5b82811015620005b5578489015182556001820191506020850194506020810190506200058e565b86831015620005d55784890151620005d1601f891682620004cb565b8355505b6001600288020188555050505b505050505050565b61037480620005f85f395ff3fe608060405234801561000f575f80fd5b506004361061004a575f3560e01c80633b97f75d1461004e5780638cc151f11461006c578063dc39323e14610076578063e702084d14610080575b5f80fd5b61005661009e565b60405161006391906101fd565b60405180910390f35b610074610130565b005b61007e61014c565b005b610088610168565b6040516100959190610235565b60405180910390f35b60606001800180546100af9061027b565b80601f01602080910402602001604051908101604052809291908181526020018280546100db9061027b565b80156101265780601f106100fd57610100808354040283529160200191610126565b820191905f5260205f20905b81548152906001019060200180831161010957829003601f168201915b5050505050905090565b6001805f015f82825461014391906102d8565b92505081905550565b6001805f015f82825461015f919061030b565b92505081905550565b5f60015f0154905090565b5f81519050919050565b5f82825260208201905092915050565b5f5b838110156101aa57808201518184015260208101905061018f565b5f8484015250505050565b5f601f19601f8301169050919050565b5f6101cf82610173565b6101d9818561017d565b93506101e981856020860161018d565b6101f2816101b5565b840191505092915050565b5f6020820190508181035f83015261021581846101c5565b905092915050565b5f819050919050565b61022f8161021d565b82525050565b5f6020820190506102485f830184610226565b92915050565b7f4e487b71000000000000000000000000000000000000000000000000000000005f52602260045260245ffd5b5f600282049050600182168061029257607f821691505b6020821081036102a5576102a461024e565b5b50919050565b7f4e487b71000000000000000000000000000000000000000000000000000000005f52601160045260245ffd5b5f6102e28261021d565b91506102ed8361021d565b9250828203905081811115610305576103046102ab565b5b92915050565b5f6103158261021d565b91506103208361021d565b9250828201905080821115610338576103376102ab565b5b9291505056fea2646970667358221220b0e052ffd43ba66c3ca0aafef528fe31e7f7efefca6330a4c31cb110f775182c64736f6c63430008150033",
  "immutableReferences": {},
  "source": "//SPDX-License-Identifier:MIT\npragma solidity ^0.8.19;\n\ncontract Counter {\n    address owner;\n\n    struct Count {\n        uint number;\n        string description;\n    }\n\n    Count count;\n\n    modifier onlyOnwer {\n        require( msg.sender == owner, \"Only the owner can increment or decrement the counter\");\n        _;\n    }\n\n    constructor(uint initial_value, string memory _description) {\n        owner = msg.sender;\n        count = Count(initial_value, _description);\n    }\n\n    function increment_counter_value() external {\n        count.number += 1;\n    }\n\n    function decrement_counter_value() external {\n        count.number -= 1;\n    }\n\n    function get_number_value() external view returns(uint){\n        return count.number;\n    }\n\n    function get_description_value() external view returns( string memory ) {\n        return count.description;\n    }\n\n}",
  "sourcePath": "/home/temba/Documents/Bootcamp/web3TransitionBootcamp/contracts/Solidity_Lesson_Part1/Counter.sol",
  "compiler": {
    "name": "solc",
    "version": "0.8.21+commit.d9974bed.Emscripten.clang"
  },
  "schemaVersion": "3.4.16",
  "updatedAt": "2024-02-07T12:33:11.190Z",
  "devdoc": {
    "kind": "dev",
    "methods": {},
    "version": 1
  },
  "userdoc": {
    "kind": "user",
    "methods": {},
    "version": 1
  }
}